{"contracts/Check.sol":{"Check":{"abi":[{"inputs":[{"internalType":"uint256","name":"a","type":"uint256"},{"internalType":"uint256","name":"b","type":"uint256"}],"name":"taker","outputs":[],"stateMutability":"nonpayable","type":"function"}],"evm":{"bytecode":{"linkReferences":{},"object":"608060405234801561001057600080fd5b50610176806100206000396000f3fe608060405234801561001057600080fd5b506004361061002b5760003560e01c80630704893f14610030575b600080fd5b61004a6004803603810190610045919061009d565b61004c565b005b8082610058919061010c565b6000819055505050565b600080fd5b6000819050919050565b61007a81610067565b811461008557600080fd5b50565b60008135905061009781610071565b92915050565b600080604083850312156100b4576100b3610062565b5b60006100c285828601610088565b92505060206100d385828601610088565b9150509250929050565b7f4e487b7100000000000000000000000000000000000000000000000000000000600052601160045260246000fd5b600061011782610067565b915061012283610067565b925082820190508082111561013a576101396100dd565b5b9291505056fea26469706673582212208d4e70d9b8e0e753a2684e564970a127e463975a0637ddf69dc16c00b51a226264736f6c63430008110033","opcodes":"PUSH1 0x80 PUSH1 0x40 MSTORE CALLVALUE DUP1 ISZERO PUSH2 0x10 JUMPI PUSH1 0x0 DUP1 REVERT JUMPDEST POP PUSH2 0x176 DUP1 PUSH2 0x20 PUSH1 0x0 CODECOPY PUSH1 0x0 RETURN INVALID PUSH1 0x80 PUSH1 0x40 MSTORE CALLVALUE DUP1 ISZERO PUSH2 0x10 JUMPI PUSH1 0x0 DUP1 REVERT JUMPDEST POP PUSH1 0x4 CALLDATASIZE LT PUSH2 0x2B JUMPI PUSH1 0x0 CALLDATALOAD PUSH1 0xE0 SHR DUP1 PUSH4 0x704893F EQ PUSH2 0x30 JUMPI JUMPDEST PUSH1 0x0 DUP1 REVERT JUMPDEST PUSH2 0x4A PUSH1 0x4 DUP1 CALLDATASIZE SUB DUP2 ADD SWAP1 PUSH2 0x45 SWAP2 SWAP1 PUSH2 0x9D JUMP JUMPDEST PUSH2 0x4C JUMP JUMPDEST STOP JUMPDEST DUP1 DUP3 PUSH2 0x58 SWAP2 SWAP1 PUSH2 0x10C JUMP JUMPDEST PUSH1 0x0 DUP2 SWAP1 SSTORE POP POP POP JUMP JUMPDEST PUSH1 0x0 DUP1 REVERT JUMPDEST PUSH1 0x0 DUP2 SWAP1 POP SWAP2 SWAP1 POP JUMP JUMPDEST PUSH2 0x7A DUP2 PUSH2 0x67 JUMP JUMPDEST DUP2 EQ PUSH2 0x85 JUMPI PUSH1 0x0 DUP1 REVERT JUMPDEST POP JUMP JUMPDEST PUSH1 0x0 DUP2 CALLDATALOAD SWAP1 POP PUSH2 0x97 DUP2 PUSH2 0x71 JUMP JUMPDEST SWAP3 SWAP2 POP POP JUMP JUMPDEST PUSH1 0x0 DUP1 PUSH1 0x40 DUP4 DUP6 SUB SLT ISZERO PUSH2 0xB4 JUMPI PUSH2 0xB3 PUSH2 0x62 JUMP JUMPDEST JUMPDEST PUSH1 0x0 PUSH2 0xC2 DUP6 DUP3 DUP7 ADD PUSH2 0x88 JUMP JUMPDEST SWAP3 POP POP PUSH1 0x20 PUSH2 0xD3 DUP6 DUP3 DUP7 ADD PUSH2 0x88 JUMP JUMPDEST SWAP2 POP POP SWAP3 POP SWAP3 SWAP1 POP JUMP JUMPDEST PUSH32 0x4E487B7100000000000000000000000000000000000000000000000000000000 PUSH1 0x0 MSTORE PUSH1 0x11 PUSH1 0x4 MSTORE PUSH1 0x24 PUSH1 0x0 REVERT JUMPDEST PUSH1 0x0 PUSH2 0x117 DUP3 PUSH2 0x67 JUMP JUMPDEST SWAP2 POP PUSH2 0x122 DUP4 PUSH2 0x67 JUMP JUMPDEST SWAP3 POP DUP3 DUP3 ADD SWAP1 POP DUP1 DUP3 GT ISZERO PUSH2 0x13A JUMPI PUSH2 0x139 PUSH2 0xDD JUMP JUMPDEST JUMPDEST SWAP3 SWAP2 POP POP JUMP INVALID LOG2 PUSH5 0x6970667358 0x22 SLT KECCAK256 DUP14 0x4E PUSH17 0xD9B8E0E753A2684E564970A127E463975A MOD CALLDATACOPY 0xDD 0xF6 SWAP14 0xC1 PUSH13 0xB51A226264736F6C63430008 GT STOP CALLER "},"methodIdentifiers":{"taker(uint256,uint256)":"0704893f"}}}}}