{
  "_format": "hh-sol-artifact-1",
  "contractName": "Check",
  "sourceName": "contracts/Check.sol",
  "abi": [
    {
      "inputs": [
        {
          "internalType": "uint256",
          "name": "a",
          "type": "uint256"
        },
        {
          "internalType": "uint256",
          "name": "b",
          "type": "uint256"
        }
      ],
      "name": "taker",
      "outputs": [],
      "stateMutability": "nonpayable",
      "type": "function"
    }
  ],
  "bytecode": "0x608060405234801561001057600080fd5b50610176806100206000396000f3fe608060405234801561001057600080fd5b506004361061002b5760003560e01c80630704893f14610030575b600080fd5b61004a6004803603810190610045919061009d565b61004c565b005b8082610058919061010c565b6000819055505050565b600080fd5b6000819050919050565b61007a81610067565b811461008557600080fd5b50565b60008135905061009781610071565b92915050565b600080604083850312156100b4576100b3610062565b5b60006100c285828601610088565b92505060206100d385828601610088565b9150509250929050565b7f4e487b7100000000000000000000000000000000000000000000000000000000600052601160045260246000fd5b600061011782610067565b915061012283610067565b925082820190508082111561013a576101396100dd565b5b9291505056fea26469706673582212208d4e70d9b8e0e753a2684e564970a127e463975a0637ddf69dc16c00b51a226264736f6c63430008110033",
  "linkReferences": {},
  "deployedLinkReferences": {}
}