{
  "_format": "hh-sol-artifact-1",
  "contractName": "WalkerHill",
  "sourceName": "contracts/WalkerHill.sol",
  "abi": [
    {
      "inputs": [],
      "stateMutability": "nonpayable",
      "type": "constructor"
    },
    {
      "anonymous": false,
      "inputs": [
        {
          "indexed": true,
          "internalType": "address",
          "name": "owner",
          "type": "address"
        },
        {
          "indexed": true,
          "internalType": "address",
          "name": "spender",
          "type": "address"
        },
        {
          "indexed": false,
          "internalType": "uint256",
          "name": "value",
          "type": "uint256"
        }
      ],
      "name": "Approval",
      "type": "event"
    },
    {
      "anonymous": false,
      "inputs": [
        {
          "indexed": true,
          "internalType": "address",
          "name": "previousOwner",
          "type": "address"
        },
        {
          "indexed": true,
          "internalType": "address",
          "name": "newOwner",
          "type": "address"
        }
      ],
      "name": "OwnershipTransferred",
      "type": "event"
    },
    {
      "anonymous": false,
      "inputs": [
        {
          "indexed": false,
          "internalType": "uint256",
          "name": "id",
          "type": "uint256"
        }
      ],
      "name": "Snapshot",
      "type": "event"
    },
    {
      "anonymous": false,
      "inputs": [
        {
          "indexed": true,
          "internalType": "address",
          "name": "from",
          "type": "address"
        },
        {
          "indexed": true,
          "internalType": "address",
          "name": "to",
          "type": "address"
        },
        {
          "indexed": false,
          "internalType": "uint256",
          "name": "value",
          "type": "uint256"
        }
      ],
      "name": "Transfer",
      "type": "event"
    },
    {
      "inputs": [
        {
          "internalType": "address",
          "name": "owner",
          "type": "address"
        },
        {
          "internalType": "address",
          "name": "spender",
          "type": "address"
        }
      ],
      "name": "allowance",
      "outputs": [
        {
          "internalType": "uint256",
          "name": "",
          "type": "uint256"
        }
      ],
      "stateMutability": "view",
      "type": "function"
    },
    {
      "inputs": [
        {
          "internalType": "address",
          "name": "spender",
          "type": "address"
        },
        {
          "internalType": "uint256",
          "name": "amount",
          "type": "uint256"
        }
      ],
      "name": "approve",
      "outputs": [
        {
          "internalType": "bool",
          "name": "",
          "type": "bool"
        }
      ],
      "stateMutability": "nonpayable",
      "type": "function"
    },
    {
      "inputs": [
        {
          "internalType": "address",
          "name": "account",
          "type": "address"
        }
      ],
      "name": "balanceOf",
      "outputs": [
        {
          "internalType": "uint256",
          "name": "",
          "type": "uint256"
        }
      ],
      "stateMutability": "view",
      "type": "function"
    },
    {
      "inputs": [
        {
          "internalType": "address",
          "name": "account",
          "type": "address"
        },
        {
          "internalType": "uint256",
          "name": "snapshotId",
          "type": "uint256"
        }
      ],
      "name": "balanceOfAt",
      "outputs": [
        {
          "internalType": "uint256",
          "name": "",
          "type": "uint256"
        }
      ],
      "stateMutability": "view",
      "type": "function"
    },
    {
      "inputs": [
        {
          "internalType": "uint256",
          "name": "amount",
          "type": "uint256"
        }
      ],
      "name": "burn",
      "outputs": [],
      "stateMutability": "nonpayable",
      "type": "function"
    },
    {
      "inputs": [
        {
          "internalType": "address",
          "name": "account",
          "type": "address"
        },
        {
          "internalType": "uint256",
          "name": "amount",
          "type": "uint256"
        }
      ],
      "name": "burnFrom",
      "outputs": [],
      "stateMutability": "nonpayable",
      "type": "function"
    },
    {
      "inputs": [],
      "name": "decimals",
      "outputs": [
        {
          "internalType": "uint8",
          "name": "",
          "type": "uint8"
        }
      ],
      "stateMutability": "view",
      "type": "function"
    },
    {
      "inputs": [
        {
          "internalType": "address",
          "name": "spender",
          "type": "address"
        },
        {
          "internalType": "uint256",
          "name": "subtractedValue",
          "type": "uint256"
        }
      ],
      "name": "decreaseAllowance",
      "outputs": [
        {
          "internalType": "bool",
          "name": "",
          "type": "bool"
        }
      ],
      "stateMutability": "nonpayable",
      "type": "function"
    },
    {
      "inputs": [
        {
          "internalType": "address",
          "name": "spender",
          "type": "address"
        },
        {
          "internalType": "uint256",
          "name": "addedValue",
          "type": "uint256"
        }
      ],
      "name": "increaseAllowance",
      "outputs": [
        {
          "internalType": "bool",
          "name": "",
          "type": "bool"
        }
      ],
      "stateMutability": "nonpayable",
      "type": "function"
    },
    {
      "inputs": [
        {
          "internalType": "address",
          "name": "to",
          "type": "address"
        },
        {
          "internalType": "uint256",
          "name": "amount",
          "type": "uint256"
        }
      ],
      "name": "mint",
      "outputs": [],
      "stateMutability": "nonpayable",
      "type": "function"
    },
    {
      "inputs": [],
      "name": "name",
      "outputs": [
        {
          "internalType": "string",
          "name": "",
          "type": "string"
        }
      ],
      "stateMutability": "view",
      "type": "function"
    },
    {
      "inputs": [],
      "name": "owner",
      "outputs": [
        {
          "internalType": "address",
          "name": "",
          "type": "address"
        }
      ],
      "stateMutability": "view",
      "type": "function"
    },
    {
      "inputs": [],
      "name": "renounceOwnership",
      "outputs": [],
      "stateMutability": "nonpayable",
      "type": "function"
    },
    {
      "inputs": [],
      "name": "snapshot",
      "outputs": [],
      "stateMutability": "nonpayable",
      "type": "function"
    },
    {
      "inputs": [],
      "name": "symbol",
      "outputs": [
        {
          "internalType": "string",
          "name": "",
          "type": "string"
        }
      ],
      "stateMutability": "view",
      "type": "function"
    },
    {
      "inputs": [],
      "name": "totalSupply",
      "outputs": [
        {
          "internalType": "uint256",
          "name": "",
          "type": "uint256"
        }
      ],
      "stateMutability": "view",
      "type": "function"
    },
    {
      "inputs": [
        {
          "internalType": "uint256",
          "name": "snapshotId",
          "type": "uint256"
        }
      ],
      "name": "totalSupplyAt",
      "outputs": [
        {
          "internalType": "uint256",
          "name": "",
          "type": "uint256"
        }
      ],
      "stateMutability": "view",
      "type": "function"
    },
    {
      "inputs": [
        {
          "internalType": "address",
          "name": "to",
          "type": "address"
        },
        {
          "internalType": "uint256",
          "name": "amount",
          "type": "uint256"
        }
      ],
      "name": "transfer",
      "outputs": [
        {
          "internalType": "bool",
          "name": "",
          "type": "bool"
        }
      ],
      "stateMutability": "nonpayable",
      "type": "function"
    },
    {
      "inputs": [
        {
          "internalType": "address",
          "name": "from",
          "type": "address"
        },
        {
          "internalType": "address",
          "name": "to",
          "type": "address"
        },
        {
          "internalType": "uint256",
          "name": "amount",
          "type": "uint256"
        }
      ],
      "name": "transferFrom",
      "outputs": [
        {
          "internalType": "bool",
          "name": "",
          "type": "bool"
        }
      ],
      "stateMutability": "nonpayable",
      "type": "function"
    },
    {
      "inputs": [
        {
          "internalType": "address",
          "name": "newOwner",
          "type": "address"
        }
      ],
      "name": "transferOwnership",
      "outputs": [],
      "stateMutability": "nonpayable",
      "type": "function"
    }
  ],
  "bytecode": "0x60806040523480156200001157600080fd5b506040518060400160405280600a81526020017f57616c6b657248696c6c000000000000000000000000000000000000000000008152506040518060400160405280600281526020017f574800000000000000000000000000000000000000000000000000000000000081525081600390816200008f9190620008a9565b508060049081620000a19190620008a9565b505050620000c4620000b8620000e560201b60201c565b620000ed60201b60201c565b620000df3368056bc75e2d63100000620001b360201b60201c565b62000b15565b600033905090565b6000600960009054906101000a900473ffffffffffffffffffffffffffffffffffffffff16905081600960006101000a81548173ffffffffffffffffffffffffffffffffffffffff021916908373ffffffffffffffffffffffffffffffffffffffff1602179055508173ffffffffffffffffffffffffffffffffffffffff168173ffffffffffffffffffffffffffffffffffffffff167f8be0079c531659141344cd1fd0a4f28419497f9722a3daafe3b4186f6b6457e060405160405180910390a35050565b600073ffffffffffffffffffffffffffffffffffffffff168273ffffffffffffffffffffffffffffffffffffffff160362000225576040517f08c379a00000000000000000000000000000000000000000000000000000000081526004016200021c90620009f1565b60405180910390fd5b62000239600083836200032b60201b60201c565b80600260008282546200024d919062000a42565b92505081905550806000808473ffffffffffffffffffffffffffffffffffffffff1673ffffffffffffffffffffffffffffffffffffffff1681526020019081526020016000206000828254620002a4919062000a42565b925050819055508173ffffffffffffffffffffffffffffffffffffffff16600073ffffffffffffffffffffffffffffffffffffffff167fddf252ad1be2c89b69c2b068fc378daa952ba7f163c4a11628f55a4df523b3ef836040516200030b919062000a8e565b60405180910390a362000327600083836200034860201b60201c565b5050565b620003438383836200034d60201b620008e31760201c565b505050565b505050565b620003658383836200044660201b6200099b1760201c565b600073ffffffffffffffffffffffffffffffffffffffff168373ffffffffffffffffffffffffffffffffffffffff1603620003c157620003ab826200044b60201b60201c565b620003bb620004ae60201b60201c565b62000441565b600073ffffffffffffffffffffffffffffffffffffffff168273ffffffffffffffffffffffffffffffffffffffff16036200041d5762000407836200044b60201b60201c565b62000417620004ae60201b60201c565b62000440565b6200042e836200044b60201b60201c565b6200043f826200044b60201b60201c565b5b5b505050565b505050565b620004ab600560008373ffffffffffffffffffffffffffffffffffffffff1673ffffffffffffffffffffffffffffffffffffffff1681526020019081526020016000206200049f83620004d260201b60201c565b6200051a60201b60201c565b50565b620004d06006620004c4620005a660201b60201c565b6200051a60201b60201c565b565b60008060008373ffffffffffffffffffffffffffffffffffffffff1673ffffffffffffffffffffffffffffffffffffffff168152602001908152602001600020549050919050565b60006200052c620005b060201b60201c565b9050806200054384600001620005ce60201b60201c565b1015620005a15782600001819080600181540180825580915050600190039060005260206000200160009091909190915055826001018290806001815401808255809150506001900390600052602060002001600090919091909150555b505050565b6000600254905090565b6000620005c960086200062160201b620009a01760201c565b905090565b600080828054905003620005e657600090506200061c565b8160018380549050620005fa919062000aab565b815481106200060e576200060d62000ae6565b5b906000526020600020015490505b919050565b600081600001549050919050565b600081519050919050565b7f4e487b7100000000000000000000000000000000000000000000000000000000600052604160045260246000fd5b7f4e487b7100000000000000000000000000000000000000000000000000000000600052602260045260246000fd5b60006002820490506001821680620006b157607f821691505b602082108103620006c757620006c662000669565b5b50919050565b60008190508160005260206000209050919050565b60006020601f8301049050919050565b600082821b905092915050565b600060088302620007317fffffffffffffffffffffffffffffffffffffffffffffffffffffffffffffffff82620006f2565b6200073d8683620006f2565b95508019841693508086168417925050509392505050565b6000819050919050565b6000819050919050565b60006200078a620007846200077e8462000755565b6200075f565b62000755565b9050919050565b6000819050919050565b620007a68362000769565b620007be620007b58262000791565b848454620006ff565b825550505050565b600090565b620007d5620007c6565b620007e28184846200079b565b505050565b5b818110156200080a57620007fe600082620007cb565b600181019050620007e8565b5050565b601f82111562000859576200082381620006cd565b6200082e84620006e2565b810160208510156200083e578190505b620008566200084d85620006e2565b830182620007e7565b50505b505050565b600082821c905092915050565b60006200087e600019846008026200085e565b1980831691505092915050565b60006200089983836200086b565b9150826002028217905092915050565b620008b4826200062f565b67ffffffffffffffff811115620008d057620008cf6200063a565b5b620008dc825462000698565b620008e98282856200080e565b600060209050601f8311600181146200092157600084156200090c578287015190505b6200091885826200088b565b86555062000988565b601f1984166200093186620006cd565b60005b828110156200095b5784890151825560018201915060208501945060208101905062000934565b868310156200097b578489015162000977601f8916826200086b565b8355505b6001600288020188555050505b505050505050565b600082825260208201905092915050565b7f45524332303a206d696e7420746f20746865207a65726f206164647265737300600082015250565b6000620009d9601f8362000990565b9150620009e682620009a1565b602082019050919050565b6000602082019050818103600083015262000a0c81620009ca565b9050919050565b7f4e487b7100000000000000000000000000000000000000000000000000000000600052601160045260246000fd5b600062000a4f8262000755565b915062000a5c8362000755565b925082820190508082111562000a775762000a7662000a13565b5b92915050565b62000a888162000755565b82525050565b600060208201905062000aa5600083018462000a7d565b92915050565b600062000ab88262000755565b915062000ac58362000755565b925082820390508181111562000ae05762000adf62000a13565b5b92915050565b7f4e487b7100000000000000000000000000000000000000000000000000000000600052603260045260246000fd5b6122ea8062000b256000396000f3fe608060405234801561001057600080fd5b506004361061012c5760003560e01c8063715018a6116100ad578063981b24d011610071578063981b24d01461031f578063a457c2d71461034f578063a9059cbb1461037f578063dd62ed3e146103af578063f2fde38b146103df5761012c565b8063715018a6146102b357806379cc6790146102bd5780638da5cb5b146102d957806395d89b41146102f75780639711715a146103155761012c565b806339509351116100f457806339509351146101eb57806340c10f191461021b57806342966c68146102375780634ee2cd7e1461025357806370a08231146102835761012c565b806306fdde0314610131578063095ea7b31461014f57806318160ddd1461017f57806323b872dd1461019d578063313ce567146101cd575b600080fd5b6101396103fb565b6040516101469190611747565b60405180910390f35b61016960048036038101906101649190611802565b61048d565b604051610176919061185d565b60405180910390f35b6101876104b0565b6040516101949190611887565b60405180910390f35b6101b760048036038101906101b291906118a2565b6104ba565b6040516101c4919061185d565b60405180910390f35b6101d56104e9565b6040516101e29190611911565b60405180910390f35b61020560048036038101906102009190611802565b6104f2565b604051610212919061185d565b60405180910390f35b61023560048036038101906102309190611802565b610529565b005b610251600480360381019061024c919061192c565b61053f565b005b61026d60048036038101906102689190611802565b610553565b60405161027a9190611887565b60405180910390f35b61029d60048036038101906102989190611959565b6105c3565b6040516102aa9190611887565b60405180910390f35b6102bb61060b565b005b6102d760048036038101906102d29190611802565b61061f565b005b6102e161063f565b6040516102ee9190611995565b60405180910390f35b6102ff610669565b60405161030c9190611747565b60405180910390f35b61031d6106fb565b005b6103396004803603810190610334919061192c565b61070e565b6040516103469190611887565b60405180910390f35b61036960048036038101906103649190611802565b61073f565b604051610376919061185d565b60405180910390f35b61039960048036038101906103949190611802565b6107b6565b6040516103a6919061185d565b60405180910390f35b6103c960048036038101906103c491906119b0565b6107d9565b6040516103d69190611887565b60405180910390f35b6103f960048036038101906103f49190611959565b610860565b005b60606003805461040a90611a1f565b80601f016020809104026020016040519081016040528092919081815260200182805461043690611a1f565b80156104835780601f1061045857610100808354040283529160200191610483565b820191906000526020600020905b81548152906001019060200180831161046657829003601f168201915b5050505050905090565b6000806104986109ae565b90506104a58185856109b6565b600191505092915050565b6000600254905090565b6000806104c56109ae565b90506104d2858285610b7f565b6104dd858585610c0b565b60019150509392505050565b60006012905090565b6000806104fd6109ae565b905061051e81858561050f85896107d9565b6105199190611a7f565b6109b6565b600191505092915050565b610531610e8a565b61053b8282610f08565b5050565b61055061054a6109ae565b82611067565b50565b60008060006105a084600560008873ffffffffffffffffffffffffffffffffffffffff1673ffffffffffffffffffffffffffffffffffffffff16815260200190815260200160002061123d565b91509150816105b7576105b2856105c3565b6105b9565b805b9250505092915050565b60008060008373ffffffffffffffffffffffffffffffffffffffff1673ffffffffffffffffffffffffffffffffffffffff168152602001908152602001600020549050919050565b610613610e8a565b61061d6000611332565b565b6106318261062b6109ae565b83610b7f565b61063b8282611067565b5050565b6000600960009054906101000a900473ffffffffffffffffffffffffffffffffffffffff16905090565b60606004805461067890611a1f565b80601f01602080910402602001604051908101604052809291908181526020018280546106a490611a1f565b80156106f15780601f106106c6576101008083540402835291602001916106f1565b820191906000526020600020905b8154815290600101906020018083116106d457829003601f168201915b5050505050905090565b610703610e8a565b61070b6113f8565b50565b600080600061071e84600661123d565b91509150816107345761072f6104b0565b610736565b805b92505050919050565b60008061074a6109ae565b9050600061075882866107d9565b90508381101561079d576040517f08c379a000000000000000000000000000000000000000000000000000000000815260040161079490611b25565b60405180910390fd5b6107aa82868684036109b6565b60019250505092915050565b6000806107c16109ae565b90506107ce818585610c0b565b600191505092915050565b6000600160008473ffffffffffffffffffffffffffffffffffffffff1673ffffffffffffffffffffffffffffffffffffffff16815260200190815260200160002060008373ffffffffffffffffffffffffffffffffffffffff1673ffffffffffffffffffffffffffffffffffffffff16815260200190815260200160002054905092915050565b610868610e8a565b600073ffffffffffffffffffffffffffffffffffffffff168173ffffffffffffffffffffffffffffffffffffffff16036108d7576040517f08c379a00000000000000000000000000000000000000000000000000000000081526004016108ce90611bb7565b60405180910390fd5b6108e081611332565b50565b6108ee83838361099b565b600073ffffffffffffffffffffffffffffffffffffffff168373ffffffffffffffffffffffffffffffffffffffff16036109385761092b8261144e565b6109336114a1565b610996565b600073ffffffffffffffffffffffffffffffffffffffff168273ffffffffffffffffffffffffffffffffffffffff1603610982576109758361144e565b61097d6114a1565b610995565b61098b8361144e565b6109948261144e565b5b5b505050565b505050565b600081600001549050919050565b600033905090565b600073ffffffffffffffffffffffffffffffffffffffff168373ffffffffffffffffffffffffffffffffffffffff1603610a25576040517f08c379a0000000000000000000000000000000000000000000000000000000008152600401610a1c90611c49565b60405180910390fd5b600073ffffffffffffffffffffffffffffffffffffffff168273ffffffffffffffffffffffffffffffffffffffff1603610a94576040517f08c379a0000000000000000000000000000000000000000000000000000000008152600401610a8b90611cdb565b60405180910390fd5b80600160008573ffffffffffffffffffffffffffffffffffffffff1673ffffffffffffffffffffffffffffffffffffffff16815260200190815260200160002060008473ffffffffffffffffffffffffffffffffffffffff1673ffffffffffffffffffffffffffffffffffffffff168152602001908152602001600020819055508173ffffffffffffffffffffffffffffffffffffffff168373ffffffffffffffffffffffffffffffffffffffff167f8c5be1e5ebec7d5bd14f71427d1e84f3dd0314c0f7b2291e5b200ac8c7c3b92583604051610b729190611887565b60405180910390a3505050565b6000610b8b84846107d9565b90507fffffffffffffffffffffffffffffffffffffffffffffffffffffffffffffffff8114610c055781811015610bf7576040517f08c379a0000000000000000000000000000000000000000000000000000000008152600401610bee90611d47565b60405180910390fd5b610c0484848484036109b6565b5b50505050565b600073ffffffffffffffffffffffffffffffffffffffff168373ffffffffffffffffffffffffffffffffffffffff1603610c7a576040517f08c379a0000000000000000000000000000000000000000000000000000000008152600401610c7190611dd9565b60405180910390fd5b600073ffffffffffffffffffffffffffffffffffffffff168273ffffffffffffffffffffffffffffffffffffffff1603610ce9576040517f08c379a0000000000000000000000000000000000000000000000000000000008152600401610ce090611e6b565b60405180910390fd5b610cf48383836114b5565b60008060008573ffffffffffffffffffffffffffffffffffffffff1673ffffffffffffffffffffffffffffffffffffffff16815260200190815260200160002054905081811015610d7a576040517f08c379a0000000000000000000000000000000000000000000000000000000008152600401610d7190611efd565b60405180910390fd5b8181036000808673ffffffffffffffffffffffffffffffffffffffff1673ffffffffffffffffffffffffffffffffffffffff16815260200190815260200160002081905550816000808573ffffffffffffffffffffffffffffffffffffffff1673ffffffffffffffffffffffffffffffffffffffff1681526020019081526020016000206000828254610e0d9190611a7f565b925050819055508273ffffffffffffffffffffffffffffffffffffffff168473ffffffffffffffffffffffffffffffffffffffff167fddf252ad1be2c89b69c2b068fc378daa952ba7f163c4a11628f55a4df523b3ef84604051610e719190611887565b60405180910390a3610e848484846114c5565b50505050565b610e926109ae565b73ffffffffffffffffffffffffffffffffffffffff16610eb061063f565b73ffffffffffffffffffffffffffffffffffffffff1614610f06576040517f08c379a0000000000000000000000000000000000000000000000000000000008152600401610efd90611f69565b60405180910390fd5b565b600073ffffffffffffffffffffffffffffffffffffffff168273ffffffffffffffffffffffffffffffffffffffff1603610f77576040517f08c379a0000000000000000000000000000000000000000000000000000000008152600401610f6e90611fd5565b60405180910390fd5b610f83600083836114b5565b8060026000828254610f959190611a7f565b92505081905550806000808473ffffffffffffffffffffffffffffffffffffffff1673ffffffffffffffffffffffffffffffffffffffff1681526020019081526020016000206000828254610fea9190611a7f565b925050819055508173ffffffffffffffffffffffffffffffffffffffff16600073ffffffffffffffffffffffffffffffffffffffff167fddf252ad1be2c89b69c2b068fc378daa952ba7f163c4a11628f55a4df523b3ef8360405161104f9190611887565b60405180910390a3611063600083836114c5565b5050565b600073ffffffffffffffffffffffffffffffffffffffff168273ffffffffffffffffffffffffffffffffffffffff16036110d6576040517f08c379a00000000000000000000000000000000000000000000000000000000081526004016110cd90612067565b60405180910390fd5b6110e2826000836114b5565b60008060008473ffffffffffffffffffffffffffffffffffffffff1673ffffffffffffffffffffffffffffffffffffffff16815260200190815260200160002054905081811015611168576040517f08c379a000000000000000000000000000000000000000000000000000000000815260040161115f906120f9565b60405180910390fd5b8181036000808573ffffffffffffffffffffffffffffffffffffffff1673ffffffffffffffffffffffffffffffffffffffff1681526020019081526020016000208190555081600260008282546111bf9190612119565b92505081905550600073ffffffffffffffffffffffffffffffffffffffff168373ffffffffffffffffffffffffffffffffffffffff167fddf252ad1be2c89b69c2b068fc378daa952ba7f163c4a11628f55a4df523b3ef846040516112249190611887565b60405180910390a3611238836000846114c5565b505050565b60008060008411611283576040517f08c379a000000000000000000000000000000000000000000000000000000000815260040161127a90612199565b60405180910390fd5b61128b6114ca565b8411156112cd576040517f08c379a00000000000000000000000000000000000000000000000000000000081526004016112c490612205565b60405180910390fd5b60006112e585856000016114db90919063ffffffff16565b90508360000180549050810361130257600080925092505061132b565b600184600101828154811061131a57611319612225565b5b906000526020600020015492509250505b9250929050565b6000600960009054906101000a900473ffffffffffffffffffffffffffffffffffffffff16905081600960006101000a81548173ffffffffffffffffffffffffffffffffffffffff021916908373ffffffffffffffffffffffffffffffffffffffff1602179055508173ffffffffffffffffffffffffffffffffffffffff168173ffffffffffffffffffffffffffffffffffffffff167f8be0079c531659141344cd1fd0a4f28419497f9722a3daafe3b4186f6b6457e060405160405180910390a35050565b600061140460086115b4565b600061140e6114ca565b90507f8030e83b04d87bef53480e26263266d6ca66863aa8506aca6f2559d18aa1cb678160405161143f9190611887565b60405180910390a18091505090565b61149e600560008373ffffffffffffffffffffffffffffffffffffffff1673ffffffffffffffffffffffffffffffffffffffff168152602001908152602001600020611499836105c3565b6115ca565b50565b6114b360066114ae6104b0565b6115ca565b565b6114c08383836108e3565b505050565b505050565b60006114d660086109a0565b905090565b6000808380549050036114f157600090506115ae565b600080848054905090505b808210156115555760006115108383611645565b90508486828154811061152657611525612225565b5b9060005260206000200154111561153f5780915061154f565b60018161154c9190611a7f565b92505b506114fc565b60008211801561158d5750838560018461156f9190612119565b815481106115805761157f612225565b5b9060005260206000200154145b156115a85760018261159f9190612119565b925050506115ae565b81925050505b92915050565b6001816000016000828254019250508190555050565b60006115d46114ca565b9050806115e38460000161166b565b10156116405782600001819080600181540180825580915050600190039060005260206000200160009091909190915055826001018290806001815401808255809150506001900390600052602060002001600090919091909150555b505050565b600060028284186116569190612283565b8284166116639190611a7f565b905092915050565b60008082805490500361168157600090506116b2565b81600183805490506116939190612119565b815481106116a4576116a3612225565b5b906000526020600020015490505b919050565b600081519050919050565b600082825260208201905092915050565b60005b838110156116f15780820151818401526020810190506116d6565b60008484015250505050565b6000601f19601f8301169050919050565b6000611719826116b7565b61172381856116c2565b93506117338185602086016116d3565b61173c816116fd565b840191505092915050565b60006020820190508181036000830152611761818461170e565b905092915050565b600080fd5b600073ffffffffffffffffffffffffffffffffffffffff82169050919050565b60006117998261176e565b9050919050565b6117a98161178e565b81146117b457600080fd5b50565b6000813590506117c6816117a0565b92915050565b6000819050919050565b6117df816117cc565b81146117ea57600080fd5b50565b6000813590506117fc816117d6565b92915050565b6000806040838503121561181957611818611769565b5b6000611827858286016117b7565b9250506020611838858286016117ed565b9150509250929050565b60008115159050919050565b61185781611842565b82525050565b6000602082019050611872600083018461184e565b92915050565b611881816117cc565b82525050565b600060208201905061189c6000830184611878565b92915050565b6000806000606084860312156118bb576118ba611769565b5b60006118c9868287016117b7565b93505060206118da868287016117b7565b92505060406118eb868287016117ed565b9150509250925092565b600060ff82169050919050565b61190b816118f5565b82525050565b60006020820190506119266000830184611902565b92915050565b60006020828403121561194257611941611769565b5b6000611950848285016117ed565b91505092915050565b60006020828403121561196f5761196e611769565b5b600061197d848285016117b7565b91505092915050565b61198f8161178e565b82525050565b60006020820190506119aa6000830184611986565b92915050565b600080604083850312156119c7576119c6611769565b5b60006119d5858286016117b7565b92505060206119e6858286016117b7565b9150509250929050565b7f4e487b7100000000000000000000000000000000000000000000000000000000600052602260045260246000fd5b60006002820490506001821680611a3757607f821691505b602082108103611a4a57611a496119f0565b5b50919050565b7f4e487b7100000000000000000000000000000000000000000000000000000000600052601160045260246000fd5b6000611a8a826117cc565b9150611a95836117cc565b9250828201905080821115611aad57611aac611a50565b5b92915050565b7f45524332303a2064656372656173656420616c6c6f77616e63652062656c6f7760008201527f207a65726f000000000000000000000000000000000000000000000000000000602082015250565b6000611b0f6025836116c2565b9150611b1a82611ab3565b604082019050919050565b60006020820190508181036000830152611b3e81611b02565b9050919050565b7f4f776e61626c653a206e6577206f776e657220697320746865207a65726f206160008201527f6464726573730000000000000000000000000000000000000000000000000000602082015250565b6000611ba16026836116c2565b9150611bac82611b45565b604082019050919050565b60006020820190508181036000830152611bd081611b94565b9050919050565b7f45524332303a20617070726f76652066726f6d20746865207a65726f2061646460008201527f7265737300000000000000000000000000000000000000000000000000000000602082015250565b6000611c336024836116c2565b9150611c3e82611bd7565b604082019050919050565b60006020820190508181036000830152611c6281611c26565b9050919050565b7f45524332303a20617070726f766520746f20746865207a65726f20616464726560008201527f7373000000000000000000000000000000000000000000000000000000000000602082015250565b6000611cc56022836116c2565b9150611cd082611c69565b604082019050919050565b60006020820190508181036000830152611cf481611cb8565b9050919050565b7f45524332303a20696e73756666696369656e7420616c6c6f77616e6365000000600082015250565b6000611d31601d836116c2565b9150611d3c82611cfb565b602082019050919050565b60006020820190508181036000830152611d6081611d24565b9050919050565b7f45524332303a207472616e736665722066726f6d20746865207a65726f20616460008201527f6472657373000000000000000000000000000000000000000000000000000000602082015250565b6000611dc36025836116c2565b9150611dce82611d67565b604082019050919050565b60006020820190508181036000830152611df281611db6565b9050919050565b7f45524332303a207472616e7366657220746f20746865207a65726f206164647260008201527f6573730000000000000000000000000000000000000000000000000000000000602082015250565b6000611e556023836116c2565b9150611e6082611df9565b604082019050919050565b60006020820190508181036000830152611e8481611e48565b9050919050565b7f45524332303a207472616e7366657220616d6f756e742065786365656473206260008201527f616c616e63650000000000000000000000000000000000000000000000000000602082015250565b6000611ee76026836116c2565b9150611ef282611e8b565b604082019050919050565b60006020820190508181036000830152611f1681611eda565b9050919050565b7f4f776e61626c653a2063616c6c6572206973206e6f7420746865206f776e6572600082015250565b6000611f536020836116c2565b9150611f5e82611f1d565b602082019050919050565b60006020820190508181036000830152611f8281611f46565b9050919050565b7f45524332303a206d696e7420746f20746865207a65726f206164647265737300600082015250565b6000611fbf601f836116c2565b9150611fca82611f89565b602082019050919050565b60006020820190508181036000830152611fee81611fb2565b9050919050565b7f45524332303a206275726e2066726f6d20746865207a65726f2061646472657360008201527f7300000000000000000000000000000000000000000000000000000000000000602082015250565b60006120516021836116c2565b915061205c82611ff5565b604082019050919050565b6000602082019050818103600083015261208081612044565b9050919050565b7f45524332303a206275726e20616d6f756e7420657863656564732062616c616e60008201527f6365000000000000000000000000000000000000000000000000000000000000602082015250565b60006120e36022836116c2565b91506120ee82612087565b604082019050919050565b60006020820190508181036000830152612112816120d6565b9050919050565b6000612124826117cc565b915061212f836117cc565b925082820390508181111561214757612146611a50565b5b92915050565b7f4552433230536e617073686f743a206964206973203000000000000000000000600082015250565b60006121836016836116c2565b915061218e8261214d565b602082019050919050565b600060208201905081810360008301526121b281612176565b9050919050565b7f4552433230536e617073686f743a206e6f6e6578697374656e74206964000000600082015250565b60006121ef601d836116c2565b91506121fa826121b9565b602082019050919050565b6000602082019050818103600083015261221e816121e2565b9050919050565b7f4e487b7100000000000000000000000000000000000000000000000000000000600052603260045260246000fd5b7f4e487b7100000000000000000000000000000000000000000000000000000000600052601260045260246000fd5b600061228e826117cc565b9150612299836117cc565b9250826122a9576122a8612254565b5b82820490509291505056fea26469706673582212203cba94783215e798e12bf876dfeb1b02792a7509a158d8d0c8f5d8022d04c2f564736f6c63430008110033",
  "linkReferences": {},
  "deployedLinkReferences": {}
}