{
  "_format": "hh-sol-artifact-1",
  "contractName": "WalkerHillNFT",
  "sourceName": "contracts/WalkerHillNFT.sol",
  "abi": [
    {
      "inputs": [],
      "stateMutability": "nonpayable",
      "type": "constructor"
    },
    {
      "anonymous": false,
      "inputs": [
        {
          "indexed": true,
          "internalType": "address",
          "name": "owner",
          "type": "address"
        },
        {
          "indexed": true,
          "internalType": "address",
          "name": "approved",
          "type": "address"
        },
        {
          "indexed": true,
          "internalType": "uint256",
          "name": "tokenId",
          "type": "uint256"
        }
      ],
      "name": "Approval",
      "type": "event"
    },
    {
      "anonymous": false,
      "inputs": [
        {
          "indexed": true,
          "internalType": "address",
          "name": "owner",
          "type": "address"
        },
        {
          "indexed": true,
          "internalType": "address",
          "name": "operator",
          "type": "address"
        },
        {
          "indexed": false,
          "internalType": "bool",
          "name": "approved",
          "type": "bool"
        }
      ],
      "name": "ApprovalForAll",
      "type": "event"
    },
    {
      "anonymous": false,
      "inputs": [
        {
          "indexed": true,
          "internalType": "address",
          "name": "previousOwner",
          "type": "address"
        },
        {
          "indexed": true,
          "internalType": "address",
          "name": "newOwner",
          "type": "address"
        }
      ],
      "name": "OwnershipTransferred",
      "type": "event"
    },
    {
      "anonymous": false,
      "inputs": [
        {
          "indexed": false,
          "internalType": "address",
          "name": "account",
          "type": "address"
        }
      ],
      "name": "Paused",
      "type": "event"
    },
    {
      "anonymous": false,
      "inputs": [
        {
          "indexed": true,
          "internalType": "address",
          "name": "from",
          "type": "address"
        },
        {
          "indexed": true,
          "internalType": "address",
          "name": "to",
          "type": "address"
        },
        {
          "indexed": true,
          "internalType": "uint256",
          "name": "tokenId",
          "type": "uint256"
        }
      ],
      "name": "Transfer",
      "type": "event"
    },
    {
      "anonymous": false,
      "inputs": [
        {
          "indexed": false,
          "internalType": "address",
          "name": "account",
          "type": "address"
        }
      ],
      "name": "Unpaused",
      "type": "event"
    },
    {
      "inputs": [
        {
          "internalType": "address",
          "name": "to",
          "type": "address"
        },
        {
          "internalType": "uint256",
          "name": "tokenId",
          "type": "uint256"
        }
      ],
      "name": "approve",
      "outputs": [],
      "stateMutability": "nonpayable",
      "type": "function"
    },
    {
      "inputs": [
        {
          "internalType": "address",
          "name": "owner",
          "type": "address"
        }
      ],
      "name": "balanceOf",
      "outputs": [
        {
          "internalType": "uint256",
          "name": "",
          "type": "uint256"
        }
      ],
      "stateMutability": "view",
      "type": "function"
    },
    {
      "inputs": [
        {
          "internalType": "uint256",
          "name": "tokenId",
          "type": "uint256"
        }
      ],
      "name": "getApproved",
      "outputs": [
        {
          "internalType": "address",
          "name": "",
          "type": "address"
        }
      ],
      "stateMutability": "view",
      "type": "function"
    },
    {
      "inputs": [
        {
          "internalType": "address",
          "name": "owner",
          "type": "address"
        },
        {
          "internalType": "address",
          "name": "operator",
          "type": "address"
        }
      ],
      "name": "isApprovedForAll",
      "outputs": [
        {
          "internalType": "bool",
          "name": "",
          "type": "bool"
        }
      ],
      "stateMutability": "view",
      "type": "function"
    },
    {
      "inputs": [],
      "name": "makeAnEpicNFT",
      "outputs": [],
      "stateMutability": "nonpayable",
      "type": "function"
    },
    {
      "inputs": [],
      "name": "name",
      "outputs": [
        {
          "internalType": "string",
          "name": "",
          "type": "string"
        }
      ],
      "stateMutability": "view",
      "type": "function"
    },
    {
      "inputs": [],
      "name": "owner",
      "outputs": [
        {
          "internalType": "address",
          "name": "",
          "type": "address"
        }
      ],
      "stateMutability": "view",
      "type": "function"
    },
    {
      "inputs": [
        {
          "internalType": "uint256",
          "name": "tokenId",
          "type": "uint256"
        }
      ],
      "name": "ownerOf",
      "outputs": [
        {
          "internalType": "address",
          "name": "",
          "type": "address"
        }
      ],
      "stateMutability": "view",
      "type": "function"
    },
    {
      "inputs": [],
      "name": "pause",
      "outputs": [],
      "stateMutability": "nonpayable",
      "type": "function"
    },
    {
      "inputs": [],
      "name": "paused",
      "outputs": [
        {
          "internalType": "bool",
          "name": "",
          "type": "bool"
        }
      ],
      "stateMutability": "view",
      "type": "function"
    },
    {
      "inputs": [
        {
          "internalType": "uint256",
          "name": "tokenId",
          "type": "uint256"
        }
      ],
      "name": "pickRandomFirstWord",
      "outputs": [
        {
          "internalType": "string",
          "name": "",
          "type": "string"
        }
      ],
      "stateMutability": "view",
      "type": "function"
    },
    {
      "inputs": [
        {
          "internalType": "uint256",
          "name": "tokenId",
          "type": "uint256"
        }
      ],
      "name": "pickRandomSecondWord",
      "outputs": [
        {
          "internalType": "string",
          "name": "",
          "type": "string"
        }
      ],
      "stateMutability": "view",
      "type": "function"
    },
    {
      "inputs": [
        {
          "internalType": "uint256",
          "name": "tokenId",
          "type": "uint256"
        }
      ],
      "name": "pickRandomThirdWord",
      "outputs": [
        {
          "internalType": "string",
          "name": "",
          "type": "string"
        }
      ],
      "stateMutability": "view",
      "type": "function"
    },
    {
      "inputs": [],
      "name": "renounceOwnership",
      "outputs": [],
      "stateMutability": "nonpayable",
      "type": "function"
    },
    {
      "inputs": [
        {
          "internalType": "address",
          "name": "from",
          "type": "address"
        },
        {
          "internalType": "address",
          "name": "to",
          "type": "address"
        },
        {
          "internalType": "uint256",
          "name": "tokenId",
          "type": "uint256"
        }
      ],
      "name": "safeTransferFrom",
      "outputs": [],
      "stateMutability": "nonpayable",
      "type": "function"
    },
    {
      "inputs": [
        {
          "internalType": "address",
          "name": "from",
          "type": "address"
        },
        {
          "internalType": "address",
          "name": "to",
          "type": "address"
        },
        {
          "internalType": "uint256",
          "name": "tokenId",
          "type": "uint256"
        },
        {
          "internalType": "bytes",
          "name": "data",
          "type": "bytes"
        }
      ],
      "name": "safeTransferFrom",
      "outputs": [],
      "stateMutability": "nonpayable",
      "type": "function"
    },
    {
      "inputs": [
        {
          "internalType": "address",
          "name": "operator",
          "type": "address"
        },
        {
          "internalType": "bool",
          "name": "approved",
          "type": "bool"
        }
      ],
      "name": "setApprovalForAll",
      "outputs": [],
      "stateMutability": "nonpayable",
      "type": "function"
    },
    {
      "inputs": [
        {
          "internalType": "bytes4",
          "name": "interfaceId",
          "type": "bytes4"
        }
      ],
      "name": "supportsInterface",
      "outputs": [
        {
          "internalType": "bool",
          "name": "",
          "type": "bool"
        }
      ],
      "stateMutability": "view",
      "type": "function"
    },
    {
      "inputs": [],
      "name": "symbol",
      "outputs": [
        {
          "internalType": "string",
          "name": "",
          "type": "string"
        }
      ],
      "stateMutability": "view",
      "type": "function"
    },
    {
      "inputs": [
        {
          "internalType": "uint256",
          "name": "tokenId",
          "type": "uint256"
        }
      ],
      "name": "tokenURI",
      "outputs": [
        {
          "internalType": "string",
          "name": "",
          "type": "string"
        }
      ],
      "stateMutability": "view",
      "type": "function"
    },
    {
      "inputs": [
        {
          "internalType": "address",
          "name": "from",
          "type": "address"
        },
        {
          "internalType": "address",
          "name": "to",
          "type": "address"
        },
        {
          "internalType": "uint256",
          "name": "tokenId",
          "type": "uint256"
        }
      ],
      "name": "transferFrom",
      "outputs": [],
      "stateMutability": "nonpayable",
      "type": "function"
    },
    {
      "inputs": [
        {
          "internalType": "address",
          "name": "newOwner",
          "type": "address"
        }
      ],
      "name": "transferOwnership",
      "outputs": [],
      "stateMutability": "nonpayable",
      "type": "function"
    },
    {
      "inputs": [],
      "name": "unpause",
      "outputs": [],
      "stateMutability": "nonpayable",
      "type": "function"
    }
  ],
  "bytecode": "0x60806040526040518061020001604052806101d881526020016200444c6101d8913960089081620000319190620009c2565b506040518060c001604052806040518060400160405280600581526020017f4b6f72656100000000000000000000000000000000000000000000000000000081525081526020016040518060400160405280600281526020017f555300000000000000000000000000000000000000000000000000000000000081525081526020016040518060400160405280600581526020017f4368696e6100000000000000000000000000000000000000000000000000000081525081526020016040518060400160405280600581526020017f4a6170616e00000000000000000000000000000000000000000000000000000081525081526020016040518060400160405280600781526020017f537572696e616d0000000000000000000000000000000000000000000000000081525081526020016040518060400160405280600281526020017f554b0000000000000000000000000000000000000000000000000000000000008152508152506009906006620001af9291906200065b565b506040518060c001604052806040518060400160405280600381526020017f4b5257000000000000000000000000000000000000000000000000000000000081525081526020016040518060400160405280600381526020017f555344000000000000000000000000000000000000000000000000000000000081525081526020016040518060400160405280600381526020017f434e59000000000000000000000000000000000000000000000000000000000081525081526020016040518060400160405280600381526020017f4a5059000000000000000000000000000000000000000000000000000000000081525081526020016040518060400160405280600481526020017f537572240000000000000000000000000000000000000000000000000000000081525081526020016040518060400160405280600381526020017f4742500000000000000000000000000000000000000000000000000000000000815250815250600a9060066200032d9291906200065b565b506040518060c001604052806040518060400160405280600481526020017f417369610000000000000000000000000000000000000000000000000000000081525081526020016040518060400160405280600981526020017f4e2d416d6572696361000000000000000000000000000000000000000000000081525081526020016040518060400160405280600981526020017f532d416d6572696361000000000000000000000000000000000000000000000081525081526020016040518060400160405280600281526020017f455500000000000000000000000000000000000000000000000000000000000081525081526020016040518060400160405280600681526020017f416672696361000000000000000000000000000000000000000000000000000081525081526020016040518060400160405280600a81526020017f416e746172637469636100000000000000000000000000000000000000000000815250815250600b906006620004ab9291906200065b565b50348015620004b957600080fd5b506040518060400160405280600d81526020017f57616c6b657248696c6c4e4654000000000000000000000000000000000000008152506040518060400160405280600581526020017f57484e46540000000000000000000000000000000000000000000000000000008152508160009081620005379190620009c2565b508060019081620005499190620009c2565b5050506000600760006101000a81548160ff021916908315150217905550620005876200057b6200058d60201b60201c565b6200059560201b60201c565b62000aa9565b600033905090565b6000600760019054906101000a900473ffffffffffffffffffffffffffffffffffffffff16905081600760016101000a81548173ffffffffffffffffffffffffffffffffffffffff021916908373ffffffffffffffffffffffffffffffffffffffff1602179055508173ffffffffffffffffffffffffffffffffffffffff168173ffffffffffffffffffffffffffffffffffffffff167f8be0079c531659141344cd1fd0a4f28419497f9722a3daafe3b4186f6b6457e060405160405180910390a35050565b828054828255906000526020600020908101928215620006a8579160200282015b82811115620006a7578251829081620006969190620009c2565b50916020019190600101906200067c565b5b509050620006b79190620006bb565b5090565b5b80821115620006df5760008181620006d59190620006e3565b50600101620006bc565b5090565b508054620006f190620007b1565b6000825580601f1062000705575062000726565b601f01602090049060005260206000209081019062000725919062000729565b5b50565b5b80821115620007445760008160009055506001016200072a565b5090565b600081519050919050565b7f4e487b7100000000000000000000000000000000000000000000000000000000600052604160045260246000fd5b7f4e487b7100000000000000000000000000000000000000000000000000000000600052602260045260246000fd5b60006002820490506001821680620007ca57607f821691505b602082108103620007e057620007df62000782565b5b50919050565b60008190508160005260206000209050919050565b60006020601f8301049050919050565b600082821b905092915050565b6000600883026200084a7fffffffffffffffffffffffffffffffffffffffffffffffffffffffffffffffff826200080b565b6200085686836200080b565b95508019841693508086168417925050509392505050565b6000819050919050565b6000819050919050565b6000620008a36200089d62000897846200086e565b62000878565b6200086e565b9050919050565b6000819050919050565b620008bf8362000882565b620008d7620008ce82620008aa565b84845462000818565b825550505050565b600090565b620008ee620008df565b620008fb818484620008b4565b505050565b5b81811015620009235762000917600082620008e4565b60018101905062000901565b5050565b601f82111562000972576200093c81620007e6565b6200094784620007fb565b8101602085101562000957578190505b6200096f6200096685620007fb565b83018262000900565b50505b505050565b600082821c905092915050565b6000620009976000198460080262000977565b1980831691505092915050565b6000620009b2838362000984565b9150826002028217905092915050565b620009cd8262000748565b67ffffffffffffffff811115620009e957620009e862000753565b5b620009f58254620007b1565b62000a0282828562000927565b600060209050601f83116001811462000a3a576000841562000a25578287015190505b62000a318582620009a4565b86555062000aa1565b601f19841662000a4a86620007e6565b60005b8281101562000a745784890151825560018201915060208501945060208101905062000a4d565b8683101562000a94578489015162000a90601f89168262000984565b8355505b6001600288020188555050505b505050505050565b6139938062000ab96000396000f3fe608060405234801561001057600080fd5b506004361061014d5760003560e01c8063715018a6116100c3578063b88d4fde1161007c578063b88d4fde14610378578063c575757a14610394578063c87b56dd146103c4578063de9d132f146103f4578063e985e9c5146103fe578063f2fde38b1461042e5761014d565b8063715018a6146102dc5780638456cb59146102e65780638da5cb5b146102f057806395d89b411461030e578063a22cb4651461032c578063b187301f146103485761014d565b80632de38d68116101155780632de38d68146102085780633f4ba83a1461023857806342842e0e146102425780635c975abb1461025e5780636352211e1461027c57806370a08231146102ac5761014d565b806301ffc9a71461015257806306fdde0314610182578063081812fc146101a0578063095ea7b3146101d057806323b872dd146101ec575b600080fd5b61016c600480360381019061016791906120b8565b61044a565b6040516101799190612100565b60405180910390f35b61018a61052c565b60405161019791906121ab565b60405180910390f35b6101ba60048036038101906101b59190612203565b6105be565b6040516101c79190612271565b60405180910390f35b6101ea60048036038101906101e591906122b8565b610604565b005b610206600480360381019061020191906122f8565b61071b565b005b610222600480360381019061021d9190612203565b61077b565b60405161022f91906121ab565b60405180910390f35b610240610873565b005b61025c600480360381019061025791906122f8565b610885565b005b6102666108a5565b6040516102739190612100565b60405180910390f35b61029660048036038101906102919190612203565b6108bc565b6040516102a39190612271565b60405180910390f35b6102c660048036038101906102c1919061234b565b61096d565b6040516102d39190612387565b60405180910390f35b6102e4610a24565b005b6102ee610a38565b005b6102f8610a4a565b6040516103059190612271565b60405180910390f35b610316610a74565b60405161032391906121ab565b60405180910390f35b610346600480360381019061034191906123ce565b610b06565b005b610362600480360381019061035d9190612203565b610b1c565b60405161036f91906121ab565b60405180910390f35b610392600480360381019061038d9190612543565b610c14565b005b6103ae60048036038101906103a99190612203565b610c76565b6040516103bb91906121ab565b60405180910390f35b6103de60048036038101906103d99190612203565b610d6e565b6040516103eb91906121ab565b60405180910390f35b6103fc610d80565b005b610418600480360381019061041391906125c6565b610e20565b6040516104259190612100565b60405180910390f35b6104486004803603810190610443919061234b565b610eb4565b005b60007f80ac58cd000000000000000000000000000000000000000000000000000000007bffffffffffffffffffffffffffffffffffffffffffffffffffffffff1916827bffffffffffffffffffffffffffffffffffffffffffffffffffffffff1916148061051557507f5b5e139f000000000000000000000000000000000000000000000000000000007bffffffffffffffffffffffffffffffffffffffffffffffffffffffff1916827bffffffffffffffffffffffffffffffffffffffffffffffffffffffff1916145b80610525575061052482610f37565b5b9050919050565b60606000805461053b90612635565b80601f016020809104026020016040519081016040528092919081815260200182805461056790612635565b80156105b45780601f10610589576101008083540402835291602001916105b4565b820191906000526020600020905b81548152906001019060200180831161059757829003601f168201915b5050505050905090565b60006105c982610fa1565b6004600083815260200190815260200160002060009054906101000a900473ffffffffffffffffffffffffffffffffffffffff169050919050565b600061060f826108bc565b90508073ffffffffffffffffffffffffffffffffffffffff168373ffffffffffffffffffffffffffffffffffffffff160361067f576040517f08c379a0000000000000000000000000000000000000000000000000000000008152600401610676906126d8565b60405180910390fd5b8073ffffffffffffffffffffffffffffffffffffffff1661069e610fec565b73ffffffffffffffffffffffffffffffffffffffff1614806106cd57506106cc816106c7610fec565b610e20565b5b61070c576040517f08c379a00000000000000000000000000000000000000000000000000000000081526004016107039061276a565b60405180910390fd5b6107168383610ff4565b505050565b61072c610726610fec565b826110ad565b61076b576040517f08c379a0000000000000000000000000000000000000000000000000000000008152600401610762906127fc565b60405180910390fd5b610776838383611142565b505050565b606060006107af61078b846113a8565b60405160200161079b91906128a4565b604051602081830303815290604052611508565b9050600980549050816107c291906128f5565b9050600981815481106107d8576107d7612926565b5b9060005260206000200180546107ed90612635565b80601f016020809104026020016040519081016040528092919081815260200182805461081990612635565b80156108665780601f1061083b57610100808354040283529160200191610866565b820191906000526020600020905b81548152906001019060200180831161084957829003601f168201915b5050505050915050919050565b61087b61153b565b6108836115b9565b565b6108a083838360405180602001604052806000815250610c14565b505050565b6000600760009054906101000a900460ff16905090565b6000806002600084815260200190815260200160002060009054906101000a900473ffffffffffffffffffffffffffffffffffffffff169050600073ffffffffffffffffffffffffffffffffffffffff168173ffffffffffffffffffffffffffffffffffffffff1603610964576040517f08c379a000000000000000000000000000000000000000000000000000000000815260040161095b906129a1565b60405180910390fd5b80915050919050565b60008073ffffffffffffffffffffffffffffffffffffffff168273ffffffffffffffffffffffffffffffffffffffff16036109dd576040517f08c379a00000000000000000000000000000000000000000000000000000000081526004016109d490612a33565b60405180910390fd5b600360008373ffffffffffffffffffffffffffffffffffffffff1673ffffffffffffffffffffffffffffffffffffffff168152602001908152602001600020549050919050565b610a2c61153b565b610a36600061161c565b565b610a4061153b565b610a486116e2565b565b6000600760019054906101000a900473ffffffffffffffffffffffffffffffffffffffff16905090565b606060018054610a8390612635565b80601f0160208091040260200160405190810160405280929190818152602001828054610aaf90612635565b8015610afc5780601f10610ad157610100808354040283529160200191610afc565b820191906000526020600020905b815481529060010190602001808311610adf57829003601f168201915b5050505050905090565b610b18610b11610fec565b8383611745565b5050565b60606000610b50610b2c846113a8565b604051602001610b3c9190612a9f565b604051602081830303815290604052611508565b9050600a8054905081610b6391906128f5565b9050600a8181548110610b7957610b78612926565b5b906000526020600020018054610b8e90612635565b80601f0160208091040260200160405190810160405280929190818152602001828054610bba90612635565b8015610c075780601f10610bdc57610100808354040283529160200191610c07565b820191906000526020600020905b815481529060010190602001808311610bea57829003601f168201915b5050505050915050919050565b610c25610c1f610fec565b836110ad565b610c64576040517f08c379a0000000000000000000000000000000000000000000000000000000008152600401610c5b906127fc565b60405180910390fd5b610c70848484846118b1565b50505050565b60606000610caa610c86846113a8565b604051602001610c969190612b0d565b604051602081830303815290604052611508565b9050600b8054905081610cbd91906128f5565b9050600b8181548110610cd357610cd2612926565b5b906000526020600020018054610ce890612635565b80601f0160208091040260200160405190810160405280929190818152602001828054610d1490612635565b8015610d615780601f10610d3657610100808354040283529160200191610d61565b820191906000526020600020905b815481529060010190602001808311610d4457829003601f168201915b5050505050915050919050565b6060610d798261190d565b9050919050565b6000610d8c600c611a1f565b90506000610d998261077b565b90506000610da683610b1c565b90506000610db384610c76565b905060006008848484604051602001610dcf9493929190612c13565b6040516020818303038152906040529050610dea3386611a2d565b610e0f8560405180610340016040528061030881526020016136566103089139611a4b565b610e19600c611ab8565b5050505050565b6000600560008473ffffffffffffffffffffffffffffffffffffffff1673ffffffffffffffffffffffffffffffffffffffff16815260200190815260200160002060008373ffffffffffffffffffffffffffffffffffffffff1673ffffffffffffffffffffffffffffffffffffffff16815260200190815260200160002060009054906101000a900460ff16905092915050565b610ebc61153b565b600073ffffffffffffffffffffffffffffffffffffffff168173ffffffffffffffffffffffffffffffffffffffff1603610f2b576040517f08c379a0000000000000000000000000000000000000000000000000000000008152600401610f2290612cce565b60405180910390fd5b610f348161161c565b50565b60007f01ffc9a7000000000000000000000000000000000000000000000000000000007bffffffffffffffffffffffffffffffffffffffffffffffffffffffff1916827bffffffffffffffffffffffffffffffffffffffffffffffffffffffff1916149050919050565b610faa81611ace565b610fe9576040517f08c379a0000000000000000000000000000000000000000000000000000000008152600401610fe0906129a1565b60405180910390fd5b50565b600033905090565b816004600083815260200190815260200160002060006101000a81548173ffffffffffffffffffffffffffffffffffffffff021916908373ffffffffffffffffffffffffffffffffffffffff160217905550808273ffffffffffffffffffffffffffffffffffffffff16611067836108bc565b73ffffffffffffffffffffffffffffffffffffffff167f8c5be1e5ebec7d5bd14f71427d1e84f3dd0314c0f7b2291e5b200ac8c7c3b92560405160405180910390a45050565b6000806110b9836108bc565b90508073ffffffffffffffffffffffffffffffffffffffff168473ffffffffffffffffffffffffffffffffffffffff1614806110fb57506110fa8185610e20565b5b8061113957508373ffffffffffffffffffffffffffffffffffffffff16611121846105be565b73ffffffffffffffffffffffffffffffffffffffff16145b91505092915050565b8273ffffffffffffffffffffffffffffffffffffffff16611162826108bc565b73ffffffffffffffffffffffffffffffffffffffff16146111b8576040517f08c379a00000000000000000000000000000000000000000000000000000000081526004016111af90612d60565b60405180910390fd5b600073ffffffffffffffffffffffffffffffffffffffff168273ffffffffffffffffffffffffffffffffffffffff1603611227576040517f08c379a000000000000000000000000000000000000000000000000000000000815260040161121e90612df2565b60405180910390fd5b611232838383611b3a565b61123d600082610ff4565b6001600360008573ffffffffffffffffffffffffffffffffffffffff1673ffffffffffffffffffffffffffffffffffffffff168152602001908152602001600020600082825461128d9190612e41565b925050819055506001600360008473ffffffffffffffffffffffffffffffffffffffff1673ffffffffffffffffffffffffffffffffffffffff16815260200190815260200160002060008282546112e49190612e75565b92505081905550816002600083815260200190815260200160002060006101000a81548173ffffffffffffffffffffffffffffffffffffffff021916908373ffffffffffffffffffffffffffffffffffffffff160217905550808273ffffffffffffffffffffffffffffffffffffffff168473ffffffffffffffffffffffffffffffffffffffff167fddf252ad1be2c89b69c2b068fc378daa952ba7f163c4a11628f55a4df523b3ef60405160405180910390a46113a3838383611b52565b505050565b6060600082036113ef576040518060400160405280600181526020017f30000000000000000000000000000000000000000000000000000000000000008152509050611503565b600082905060005b6000821461142157808061140a90612ea9565b915050600a8261141a9190612ef1565b91506113f7565b60008167ffffffffffffffff81111561143d5761143c612418565b5b6040519080825280601f01601f19166020018201604052801561146f5781602001600182028036833780820191505090505b5090505b600085146114fc576001826114889190612e41565b9150600a8561149791906128f5565b60306114a39190612e75565b60f81b8183815181106114b9576114b8612926565b5b60200101907effffffffffffffffffffffffffffffffffffffffffffffffffffffffffffff1916908160001a905350600a856114f59190612ef1565b9450611473565b8093505050505b919050565b60008160405160200161151b9190612f22565b6040516020818303038152906040528051906020012060001c9050919050565b611543610fec565b73ffffffffffffffffffffffffffffffffffffffff16611561610a4a565b73ffffffffffffffffffffffffffffffffffffffff16146115b7576040517f08c379a00000000000000000000000000000000000000000000000000000000081526004016115ae90612f85565b60405180910390fd5b565b6115c1611b57565b6000600760006101000a81548160ff0219169083151502179055507f5db9ee0a495bf2e6ff9c91a7834c1ba4fdd244a5e8aa4e537bd38aeae4b073aa611605610fec565b6040516116129190612271565b60405180910390a1565b6000600760019054906101000a900473ffffffffffffffffffffffffffffffffffffffff16905081600760016101000a81548173ffffffffffffffffffffffffffffffffffffffff021916908373ffffffffffffffffffffffffffffffffffffffff1602179055508173ffffffffffffffffffffffffffffffffffffffff168173ffffffffffffffffffffffffffffffffffffffff167f8be0079c531659141344cd1fd0a4f28419497f9722a3daafe3b4186f6b6457e060405160405180910390a35050565b6116ea611ba0565b6001600760006101000a81548160ff0219169083151502179055507f62e78cea01bee320cd4e420270b5ea74000d11b0c9f74754ebdbfc544b05a25861172e610fec565b60405161173b9190612271565b60405180910390a1565b8173ffffffffffffffffffffffffffffffffffffffff168373ffffffffffffffffffffffffffffffffffffffff16036117b3576040517f08c379a00000000000000000000000000000000000000000000000000000000081526004016117aa90612ff1565b60405180910390fd5b80600560008573ffffffffffffffffffffffffffffffffffffffff1673ffffffffffffffffffffffffffffffffffffffff16815260200190815260200160002060008473ffffffffffffffffffffffffffffffffffffffff1673ffffffffffffffffffffffffffffffffffffffff16815260200190815260200160002060006101000a81548160ff0219169083151502179055508173ffffffffffffffffffffffffffffffffffffffff168373ffffffffffffffffffffffffffffffffffffffff167f17307eab39ab6107e8899845ad3d59bd9653f200f220920489ca2b5937696c31836040516118a49190612100565b60405180910390a3505050565b6118bc848484611142565b6118c884848484611bea565b611907576040517f08c379a00000000000000000000000000000000000000000000000000000000081526004016118fe90613083565b60405180910390fd5b50505050565b606061191882610fa1565b600060066000848152602001908152602001600020805461193890612635565b80601f016020809104026020016040519081016040528092919081815260200182805461196490612635565b80156119b15780601f10611986576101008083540402835291602001916119b1565b820191906000526020600020905b81548152906001019060200180831161199457829003601f168201915b5050505050905060006119c2611d71565b905060008151036119d7578192505050611a1a565b600082511115611a0c5780826040516020016119f49291906130a3565b60405160208183030381529060405292505050611a1a565b611a1584611d88565b925050505b919050565b600081600001549050919050565b611a47828260405180602001604052806000815250611df0565b5050565b611a5482611ace565b611a93576040517f08c379a0000000000000000000000000000000000000000000000000000000008152600401611a8a90613139565b60405180910390fd5b80600660008481526020019081526020016000209081611ab391906132f0565b505050565b6001816000016000828254019250508190555050565b60008073ffffffffffffffffffffffffffffffffffffffff166002600084815260200190815260200160002060009054906101000a900473ffffffffffffffffffffffffffffffffffffffff1673ffffffffffffffffffffffffffffffffffffffff1614159050919050565b611b42611ba0565b611b4d838383611e4b565b505050565b505050565b611b5f6108a5565b611b9e576040517f08c379a0000000000000000000000000000000000000000000000000000000008152600401611b959061340e565b60405180910390fd5b565b611ba86108a5565b15611be8576040517f08c379a0000000000000000000000000000000000000000000000000000000008152600401611bdf9061347a565b60405180910390fd5b565b6000611c0b8473ffffffffffffffffffffffffffffffffffffffff16611e50565b15611d64578373ffffffffffffffffffffffffffffffffffffffff1663150b7a02611c34610fec565b8786866040518563ffffffff1660e01b8152600401611c5694939291906134ef565b6020604051808303816000875af1925050508015611c9257506040513d601f19601f82011682018060405250810190611c8f9190613550565b60015b611d14573d8060008114611cc2576040519150601f19603f3d011682016040523d82523d6000602084013e611cc7565b606091505b506000815103611d0c576040517f08c379a0000000000000000000000000000000000000000000000000000000008152600401611d0390613083565b60405180910390fd5b805181602001fd5b63150b7a0260e01b7bffffffffffffffffffffffffffffffffffffffffffffffffffffffff1916817bffffffffffffffffffffffffffffffffffffffffffffffffffffffff191614915050611d69565b600190505b949350505050565b606060405180602001604052806000815250905090565b6060611d9382610fa1565b6000611d9d611d71565b90506000815111611dbd5760405180602001604052806000815250611de8565b80611dc7846113a8565b604051602001611dd89291906130a3565b6040516020818303038152906040525b915050919050565b611dfa8383611e73565b611e076000848484611bea565b611e46576040517f08c379a0000000000000000000000000000000000000000000000000000000008152600401611e3d90613083565b60405180910390fd5b505050565b505050565b6000808273ffffffffffffffffffffffffffffffffffffffff163b119050919050565b600073ffffffffffffffffffffffffffffffffffffffff168273ffffffffffffffffffffffffffffffffffffffff1603611ee2576040517f08c379a0000000000000000000000000000000000000000000000000000000008152600401611ed9906135c9565b60405180910390fd5b611eeb81611ace565b15611f2b576040517f08c379a0000000000000000000000000000000000000000000000000000000008152600401611f2290613635565b60405180910390fd5b611f3760008383611b3a565b6001600360008473ffffffffffffffffffffffffffffffffffffffff1673ffffffffffffffffffffffffffffffffffffffff1681526020019081526020016000206000828254611f879190612e75565b92505081905550816002600083815260200190815260200160002060006101000a81548173ffffffffffffffffffffffffffffffffffffffff021916908373ffffffffffffffffffffffffffffffffffffffff160217905550808273ffffffffffffffffffffffffffffffffffffffff16600073ffffffffffffffffffffffffffffffffffffffff167fddf252ad1be2c89b69c2b068fc378daa952ba7f163c4a11628f55a4df523b3ef60405160405180910390a461204860008383611b52565b5050565b6000604051905090565b600080fd5b600080fd5b60007fffffffff0000000000000000000000000000000000000000000000000000000082169050919050565b61209581612060565b81146120a057600080fd5b50565b6000813590506120b28161208c565b92915050565b6000602082840312156120ce576120cd612056565b5b60006120dc848285016120a3565b91505092915050565b60008115159050919050565b6120fa816120e5565b82525050565b600060208201905061211560008301846120f1565b92915050565b600081519050919050565b600082825260208201905092915050565b60005b8381101561215557808201518184015260208101905061213a565b60008484015250505050565b6000601f19601f8301169050919050565b600061217d8261211b565b6121878185612126565b9350612197818560208601612137565b6121a081612161565b840191505092915050565b600060208201905081810360008301526121c58184612172565b905092915050565b6000819050919050565b6121e0816121cd565b81146121eb57600080fd5b50565b6000813590506121fd816121d7565b92915050565b60006020828403121561221957612218612056565b5b6000612227848285016121ee565b91505092915050565b600073ffffffffffffffffffffffffffffffffffffffff82169050919050565b600061225b82612230565b9050919050565b61226b81612250565b82525050565b60006020820190506122866000830184612262565b92915050565b61229581612250565b81146122a057600080fd5b50565b6000813590506122b28161228c565b92915050565b600080604083850312156122cf576122ce612056565b5b60006122dd858286016122a3565b92505060206122ee858286016121ee565b9150509250929050565b60008060006060848603121561231157612310612056565b5b600061231f868287016122a3565b9350506020612330868287016122a3565b9250506040612341868287016121ee565b9150509250925092565b60006020828403121561236157612360612056565b5b600061236f848285016122a3565b91505092915050565b612381816121cd565b82525050565b600060208201905061239c6000830184612378565b92915050565b6123ab816120e5565b81146123b657600080fd5b50565b6000813590506123c8816123a2565b92915050565b600080604083850312156123e5576123e4612056565b5b60006123f3858286016122a3565b9250506020612404858286016123b9565b9150509250929050565b600080fd5b600080fd5b7f4e487b7100000000000000000000000000000000000000000000000000000000600052604160045260246000fd5b61245082612161565b810181811067ffffffffffffffff8211171561246f5761246e612418565b5b80604052505050565b600061248261204c565b905061248e8282612447565b919050565b600067ffffffffffffffff8211156124ae576124ad612418565b5b6124b782612161565b9050602081019050919050565b82818337600083830152505050565b60006124e66124e184612493565b612478565b90508281526020810184848401111561250257612501612413565b5b61250d8482856124c4565b509392505050565b600082601f83011261252a5761252961240e565b5b813561253a8482602086016124d3565b91505092915050565b6000806000806080858703121561255d5761255c612056565b5b600061256b878288016122a3565b945050602061257c878288016122a3565b935050604061258d878288016121ee565b925050606085013567ffffffffffffffff8111156125ae576125ad61205b565b5b6125ba87828801612515565b91505092959194509250565b600080604083850312156125dd576125dc612056565b5b60006125eb858286016122a3565b92505060206125fc858286016122a3565b9150509250929050565b7f4e487b7100000000000000000000000000000000000000000000000000000000600052602260045260246000fd5b6000600282049050600182168061264d57607f821691505b6020821081036126605761265f612606565b5b50919050565b7f4552433732313a20617070726f76616c20746f2063757272656e74206f776e6560008201527f7200000000000000000000000000000000000000000000000000000000000000602082015250565b60006126c2602183612126565b91506126cd82612666565b604082019050919050565b600060208201905081810360008301526126f1816126b5565b9050919050565b7f4552433732313a20617070726f76652063616c6c6572206973206e6f7420746f60008201527f6b656e206f776e6572206e6f7220617070726f76656420666f7220616c6c0000602082015250565b6000612754603e83612126565b915061275f826126f8565b604082019050919050565b6000602082019050818103600083015261278381612747565b9050919050565b7f4552433732313a2063616c6c6572206973206e6f7420746f6b656e206f776e6560008201527f72206e6f7220617070726f766564000000000000000000000000000000000000602082015250565b60006127e6602e83612126565b91506127f18261278a565b604082019050919050565b60006020820190508181036000830152612815816127d9565b9050919050565b600081905092915050565b7f46495253545f574f524400000000000000000000000000000000000000000000600082015250565b600061285d600a8361281c565b915061286882612827565b600a82019050919050565b600061287e8261211b565b612888818561281c565b9350612898818560208601612137565b80840191505092915050565b60006128af82612850565b91506128bb8284612873565b915081905092915050565b7f4e487b7100000000000000000000000000000000000000000000000000000000600052601260045260246000fd5b6000612900826121cd565b915061290b836121cd565b92508261291b5761291a6128c6565b5b828206905092915050565b7f4e487b7100000000000000000000000000000000000000000000000000000000600052603260045260246000fd5b7f4552433732313a20696e76616c696420746f6b656e2049440000000000000000600082015250565b600061298b601883612126565b915061299682612955565b602082019050919050565b600060208201905081810360008301526129ba8161297e565b9050919050565b7f4552433732313a2061646472657373207a65726f206973206e6f74206120766160008201527f6c6964206f776e65720000000000000000000000000000000000000000000000602082015250565b6000612a1d602983612126565b9150612a28826129c1565b604082019050919050565b60006020820190508181036000830152612a4c81612a10565b9050919050565b7f5345434f4e445f574f5244000000000000000000000000000000000000000000600082015250565b6000612a89600b8361281c565b9150612a9482612a53565b600b82019050919050565b6000612aaa82612a7c565b9150612ab68284612873565b915081905092915050565b7f54484952445f574f524400000000000000000000000000000000000000000000600082015250565b6000612af7600a8361281c565b9150612b0282612ac1565b600a82019050919050565b6000612b1882612aea565b9150612b248284612873565b915081905092915050565b60008190508160005260206000209050919050565b60008154612b5181612635565b612b5b818661281c565b94506001821660008114612b765760018114612b8b57612bbe565b60ff1983168652811515820286019350612bbe565b612b9485612b2f565b60005b83811015612bb657815481890152600182019150602081019050612b97565b838801955050505b50505092915050565b7f3c2f746578743e3c2f7376673e00000000000000000000000000000000000000600082015250565b6000612bfd600d8361281c565b9150612c0882612bc7565b600d82019050919050565b6000612c1f8287612b44565b9150612c2b8286612873565b9150612c378285612873565b9150612c438284612873565b9150612c4e82612bf0565b915081905095945050505050565b7f4f776e61626c653a206e6577206f776e657220697320746865207a65726f206160008201527f6464726573730000000000000000000000000000000000000000000000000000602082015250565b6000612cb8602683612126565b9150612cc382612c5c565b604082019050919050565b60006020820190508181036000830152612ce781612cab565b9050919050565b7f4552433732313a207472616e736665722066726f6d20696e636f72726563742060008201527f6f776e6572000000000000000000000000000000000000000000000000000000602082015250565b6000612d4a602583612126565b9150612d5582612cee565b604082019050919050565b60006020820190508181036000830152612d7981612d3d565b9050919050565b7f4552433732313a207472616e7366657220746f20746865207a65726f2061646460008201527f7265737300000000000000000000000000000000000000000000000000000000602082015250565b6000612ddc602483612126565b9150612de782612d80565b604082019050919050565b60006020820190508181036000830152612e0b81612dcf565b9050919050565b7f4e487b7100000000000000000000000000000000000000000000000000000000600052601160045260246000fd5b6000612e4c826121cd565b9150612e57836121cd565b9250828203905081811115612e6f57612e6e612e12565b5b92915050565b6000612e80826121cd565b9150612e8b836121cd565b9250828201905080821115612ea357612ea2612e12565b5b92915050565b6000612eb4826121cd565b91507fffffffffffffffffffffffffffffffffffffffffffffffffffffffffffffffff8203612ee657612ee5612e12565b5b600182019050919050565b6000612efc826121cd565b9150612f07836121cd565b925082612f1757612f166128c6565b5b828204905092915050565b6000612f2e8284612873565b915081905092915050565b7f4f776e61626c653a2063616c6c6572206973206e6f7420746865206f776e6572600082015250565b6000612f6f602083612126565b9150612f7a82612f39565b602082019050919050565b60006020820190508181036000830152612f9e81612f62565b9050919050565b7f4552433732313a20617070726f766520746f2063616c6c657200000000000000600082015250565b6000612fdb601983612126565b9150612fe682612fa5565b602082019050919050565b6000602082019050818103600083015261300a81612fce565b9050919050565b7f4552433732313a207472616e7366657220746f206e6f6e20455243373231526560008201527f63656976657220696d706c656d656e7465720000000000000000000000000000602082015250565b600061306d603283612126565b915061307882613011565b604082019050919050565b6000602082019050818103600083015261309c81613060565b9050919050565b60006130af8285612873565b91506130bb8284612873565b91508190509392505050565b7f45524337323155524953746f726167653a2055524920736574206f66206e6f6e60008201527f6578697374656e7420746f6b656e000000000000000000000000000000000000602082015250565b6000613123602e83612126565b915061312e826130c7565b604082019050919050565b6000602082019050818103600083015261315281613116565b9050919050565b60006020601f8301049050919050565b600082821b905092915050565b6000600883026131a67fffffffffffffffffffffffffffffffffffffffffffffffffffffffffffffffff82613169565b6131b08683613169565b95508019841693508086168417925050509392505050565b6000819050919050565b60006131ed6131e86131e3846121cd565b6131c8565b6121cd565b9050919050565b6000819050919050565b613207836131d2565b61321b613213826131f4565b848454613176565b825550505050565b600090565b613230613223565b61323b8184846131fe565b505050565b5b8181101561325f57613254600082613228565b600181019050613241565b5050565b601f8211156132a45761327581612b2f565b61327e84613159565b8101602085101561328d578190505b6132a161329985613159565b830182613240565b50505b505050565b600082821c905092915050565b60006132c7600019846008026132a9565b1980831691505092915050565b60006132e083836132b6565b9150826002028217905092915050565b6132f98261211b565b67ffffffffffffffff81111561331257613311612418565b5b61331c8254612635565b613327828285613263565b600060209050601f83116001811461335a5760008415613348578287015190505b61335285826132d4565b8655506133ba565b601f19841661336886612b2f565b60005b828110156133905784890151825560018201915060208501945060208101905061336b565b868310156133ad57848901516133a9601f8916826132b6565b8355505b6001600288020188555050505b505050505050565b7f5061757361626c653a206e6f7420706175736564000000000000000000000000600082015250565b60006133f8601483612126565b9150613403826133c2565b602082019050919050565b60006020820190508181036000830152613427816133eb565b9050919050565b7f5061757361626c653a2070617573656400000000000000000000000000000000600082015250565b6000613464601083612126565b915061346f8261342e565b602082019050919050565b6000602082019050818103600083015261349381613457565b9050919050565b600081519050919050565b600082825260208201905092915050565b60006134c18261349a565b6134cb81856134a5565b93506134db818560208601612137565b6134e481612161565b840191505092915050565b60006080820190506135046000830187612262565b6135116020830186612262565b61351e6040830185612378565b818103606083015261353081846134b6565b905095945050505050565b60008151905061354a8161208c565b92915050565b60006020828403121561356657613565612056565b5b60006135748482850161353b565b91505092915050565b7f4552433732313a206d696e7420746f20746865207a65726f2061646472657373600082015250565b60006135b3602083612126565b91506135be8261357d565b602082019050919050565b600060208201905081810360008301526135e2816135a6565b9050919050565b7f4552433732313a20746f6b656e20616c7265616479206d696e74656400000000600082015250565b600061361f601c83612126565b915061362a826135e9565b602082019050919050565b6000602082019050818103600083015261364e81613612565b905091905056fe657941674943414b496d3568625755694f6941695257646e4945686c595751694c4341674943416743694a6b5a584e6a636d6c7764476c766269493649434a424947356c6479424f526c5167593239736247566a64476c766269497343694a706257466e5a53493649434a6b595852684f6d6c745957646c4c334e325a79743462577737596d467a5a5459304c456c456548706b62574e6e5a55637863324a7554546c4a625767775a4568424e6b78354f544e6b4d324e315a48704e6457497a536d354d656b6c3354555242646d4d7a576d354a61554a3359323157656c7059536a4a6156555a3659306457616d5247536d686b5232783255464e4b4e4652586248565856544677596d6c4364467058566a424a61554979595664574d3146744f54525155306c33535552425a3031365658644a5245307854554e4a4b304e705154686a4d314931596b64564b307874536d686a4d6c566e5a586c436257465865484e506155497a595564734d4670556332646162546c315a454d7862566c584d584269534773325355684f62474e746247315065554a74596a49314d457859546e426c62565532535552464d474e495a7a644a5344413454444e4f4d475658654778515a32396e5545684b62466b7a5557646b4d6d78725a45646e4f556c715258644e513156705355646f624746585a47396b52444270546c524264307054535764616257787a596b517761566f7a536d786c55306c6e54486f3053306c4565444261574767775355686e4f556c715658644b55306c6e5a565177615535555157784a61554a71596b6447656d4e364d476c5a62555a36576c4e4a5a3170484f585268567a566f596d355264466c74526e706156336877596d31564f556c744d58426152314a7a576c4e4a5a325248566a526b517a466f596d314f6232497a53546c4a62544677576b64536331705453537333536c64464e306f794d4459315531564a547a4a53626b393554473544643263324e3039464e6a5a78526a644b4e6b59324e6b4e7355454d354d467059614442515a32396e55454d35656d52745979736949417039a264697066735822122092bc75da5692f2a682a394a29060c822e62cbd79559e159bb596da1e9767807664736f6c634300081100334944787a646d636765473173626e4d39496d6830644841364c79393364336375647a4d7562334a6e4c7a49774d44417663335a6e49694277636d567a5a584a325a55467a6347566a64464a6864476c7650534a3454576c7557553170626942745a5756304969423261575633516d393450534977494441674d7a557749444d314d43492b43694138633352356247552b4c6d4a68633255676579426d615778734f69423361476c305a5473675a6d39756443316d5957317062486b3649484e6c636d6c6d4f79426d623235304c584e70656d55364944453063486737494830384c334e306557786c50676f6750484a6c5933516764326c6b64476739496a45774d4355694947686c6157646f644430694e5441774a5349675a6d6c73624430695a334a6c655349674c7a344b494478305a58683049486739496a55774a534967655430694e54416c4969426a6247467a637a3069596d467a5a5349675a47397461573568626e5174596d467a5a577870626d5539496d31705a4752735a5349676447563464433168626d4e6f62334939496d31705a4752735a53492b374a5745374a323036355355494f32526e4f794c6e43776736374f4536367146374a36463636436c504339305a58683050676f675043397a646d632b",
  "linkReferences": {},
  "deployedLinkReferences": {}
}